:020000040800F2
:1000000000000220B9020008BF020008C302000875
:1000100035030008390300088103000800000000D0
:10002000000000000000000000000000C9030008FC
:10003000CD03000800000000D1030008D11500081E
:10004000E5030008E5030008E5030008E5030008F0
:10005000E5030008E5030008E5030008E5030008E0
:10006000E5030008E5030008E5030008E5030008D0
:10007000E5030008E5030008E5030008E5030008C0
:10008000E5030008E5030008E5030008E5030008B0
:10009000E5030008E5030008E5030008E5030008A0
:1000A000E5030008E5030008E5030008E503000890
:1000B000E5030008E5030008E5030008E503000880
:1000C000E5030008E5030008E5030008E503000870
:1000D000E5030008E5030008E5030008E503000860
:1000E000E5030008E5030008E5030008E503000850
:1000F000E5030008E5030008E5030008E503000840
:10010000E5030008E5030008E5030008E50300082F
:10011000E5030008E5030008E5030008E50300081F
:10012000E5030008E5030008E5030008E50300080F
:10013000E5030008E5030008E5030008E5030008FF
:10014000E5030008E5030008E5030008E5030008EF
:10015000E5030008E5030008E5030008E5030008DF
:10016000E5030008E5030008E5030008E5030008CF
:10017000E5030008E5030008E503000800000000AF
:10018000E5030008E503000800B583B001F0CCF8F2
:10019000384B394A1360394A1360394906E052F83E
:1001A000041B43F8041B9842F9D86146354B994229
:1001B00005D20A684B6801F10C0C8868F3E72E4BF6
:1001C0001A68314B9A4200D0FEE72C4B1A682F4B2D
:1001D0009A42F9D1274B2E4A13602E4A13602E4AB9
:1001E00000E002462D4B9A4209D2104650F8083BD7
:1001F00051689942F5D9002243F8042BF9E7244BC2
:100200001B6813B9234B1B6803B1FEE701F040F9EB
:10021000694601A800F096FF214C224BE41AA41075
:10022000002504E01F4B53F8253098470135AC42B8
:10023000F8DC1D4C1D4BE41AA410002504E01B4BF8
:1002400053F8253098470135AC42F8DC0099019805
:1002500001F060F90546164C164BE41AA41004E0B0
:10026000013C144B53F824309847002CF8DC284606
:1002700000F044FFBABADECA000000207C00002073
:10028000E8030008000400087856341232547698C7
:100290008000002020010020000400081004000855
:1002A00010040008100400081004000810040008DE
:1002B000100400081004000808B5FFF765FF00BE31
:1002C000FEE71EF0040F0CBFEFF30880EFF3098088
:1002D0007146414A10472DE9F04182B004460D466F
:1002E000124B5F6BD3F838809E6A1B6B13F0020FC2
:1002F00003D00E4BDB6A002B0BDB0D4800F060FFD8
:10030000009543463A463146204600F083FF00BE42
:10031000FEE74BF6AB6100F0F7FF0028EDD0034B92
:100320004FF00042DA6202B0BDE8F08100ED00E07B
:100330003024000800BEFEE71EF0040F0CBFEFF3F0
:100340000880EFF309807146244A10472DE9F041F7
:1003500082B004460D46084B5F6BD3F838809E6A26
:10036000064800F02DFF009543463A4631462046A8
:1003700000F050FF00BEFEE700ED00E04024000862
:100380001EF0040F0CBFEFF30880EFF309807146F5
:10039000134A10472DE9F04182B004460D46084B40
:1003A0005F6BD3F838809E6A064800F009FF00951D
:1003B00043463A463146204600F02CFF00BEFEE799
:1003C00000ED00E04C24000800BEFEE700BEFEE7A2
:1003D00000BEFEE770470000D70200084D0300088A
:0803E0009503000800BEFEE7D2
:1003E80010250008000000208000002010250008CB
:1003F80000000010000000108000002024010020F0
:080408000000001000000010CC
:1004100010B504460E4B1A784FF47A73B3FBF2F31F
:100420000C4A1068B0FBF3F000F0A8F868B90F2C84
:1004300001D901200AE0002221464FF0FF3000F0F0
:1004400057F8054B1C60002000E0012010BD00BFE4
:1004500004000020140000200800002008B50B4B09
:100460001A6842F400721A601A6842F480621A60D4
:100470001A6842F480721A60032000F01BF80F2003
:10048000FFF7C6FF01F072F8002008BD003C0240F3
:10049000034A1168034B1B780B441360704700BF7D
:1004A0008400002004000020014B1868704700BF42
:1004B0008400002010B50446C31E042B0FD80A4A3E
:1004C000D36823F4E0631B041B0C240204F4E064EF
:1004D000234343F0BF6343F40033D36010BD922144
:1004E000024800F0DDFFEAE700ED00E080220008AE
:1004F00070B505460C4616460F2A25D80F2C28D86D
:100500001B4BDB68C3F30223C3F10702042A28BF95
:100510000422191D062921D9033B4FF0FF3101FAAE
:1005200002F224EA02049C40994026EA010644EAC9
:100530000602002D14DB1201D2B205F1604505F56B
:10054000614585F8002370BDAA210A4800F0A8FF84
:10055000D4E7AB21074800F0A3FFD1E70023DCE795
:1005600005F00F051201D2B2034B5A55EBE700BF5D
:1005700000ED00E08022000814ED00E00138B0F149
:10058000807F0BD24FF0E0235861054AF02182F8BA
:1005900023100020986107221A61704701207047DC
:1005A00000ED00E010B50446042800D040B9042C4A
:1005B0000CD04FF0E022136923F00403136110BD47
:1005C00040F2C911054800F06BFFF0E74FF0E02260
:1005D000136943F004031361F1E700BF80220008B0
:1005E0002DE9F04383B007460E46AB4B984223D02B
:1005F00003F5806398421FD003F5806398421BD0B7
:1006000003F58063984217D003F58063984213D0B6
:1006100003F5806398420FD003F5806398420BD0B6
:1006200003F58063984207D003F58063984203D0B6
:10063000B3219A4800F034FF33689AB212B11B0C10
:100640001B041BB1B421954800F02AFF7368012BED
:1006500011D9934A93420ED015D8A2F58012934235
:1006600009D003D98F4A934205D017E0032B07D94D
:10067000113B012B12D8B368022B14D80024B4E02C
:10068000022B0BD3F7E7884A9342F4D002F580326D
:100690009342F0D0A2F580129342ECD0B5217F486E
:1006A00000F0FEFEE7E7B6217C4800F0F9FEE5E742
:1006B000C8217A4800F0F4FEADE00F2B40F0DA805C
:1006C000E208083257F8220004F0070189000F23DE
:1006D0008B4020EA030033698B40034347F8223004
:1006E0003B6809EA0309736803F00303AB4043EA7C
:1006F00009033B60736813F0805F75D0002301939A
:100700006A4B5A6C42F480425A645B6C03F4804337
:100710000193019BA208911C654B53F8210004F042
:10072000030189000F238B4020EA03005A4B9F42AC
:1007300025D003F580639F4200F0A18003F580631C
:100740009F4200F09E8003F580639F4200F09B80F3
:1007500003F580639F4200F0988003F580639F4219
:1007600000F0958003F580639F4200F0928003F5CE
:1007700080639F4201D0082302E0072300E00023AA
:100780008B40034302324A4941F82230494B1A68F0
:100790006FEA080322EA0801706810F4803F01D074
:1007A00048EA0201434A1160526803EA0201706894
:1007B00010F4003F01D048EA02013E4A51609268BD
:1007C00003EA0201706810F4801F01D048EA0201B8
:1007D000384A9160D2681340716811F4001F01D04B
:1007E00048EA0203334AD36001340F2C64D8012550
:1007F000A540336803EA050835EA0303F4D17368BA
:100800005A1E012A03D9112B01D0122B16D1F368DD
:10081000032B3FF64DAFBA68610003238B4022EAF9
:100820000302F3688B401343BB607A6822EA050237
:100830007368C3F30013A34013437B60FA68650039
:100840000323AB406FEA030922EA0302B368AB401B
:100850001343FB607368022B02D0122B7FF440AF6E
:100860003369002B3FF42CAF0D2B3FF626AF002B46
:100870007FF426AFE021094800F012FE20E70123B3
:100880007EE702237CE703237AE7042378E7052346
:1008900076E7062374E700BF00000240B422000898
:1008A000000021100000121000003110003802403A
:1008B00000380140003C014003B0BDE8F08300BFB8
:1008C00070B5054614460E4621B1012C08D86CB10E
:1008D000AE6170BD40F29F11064800F0E1FDF4E703
:1008E0004FF4D071034800F0DBFDF0E73604AE6151
:1008F000EFE700BFB4220008002800F05B8270B56B
:1009000082B0044603680F2B39D8236813F0010F17
:100910004DD063682BB1B3F5803F02D0B3F5A02F63
:1009200032D1804B9B6803F00C03042B36D07D4BF7
:100930009B6803F00C03082B2BD06368B3F5803F52
:100940005FD0B3F5A02F62D0764B1A6822F48032C4
:100950001A601A6822F480221A606368002B60D043
:10096000FFF7A2FD05466F4B1B6813F4003F1ED135
:10097000FFF79AFD401B6428F5D9032021E2E82106
:10098000694800F08DFDC0E7ED21674800F088FD63
:10099000C7E7644B5B6813F4800FCED0614B1B68D4
:1009A00013F4003F03D06368002B00F00582236836
:1009B00013F0020F66D0E368012B41D823691F2B87
:1009C00044D8584B9B6813F00C0F4AD0554B9B688A
:1009D00003F00C03082B3FD0E368002B77D0534B78
:1009E00001221A60FFF760FD05464E4B1B6813F0AD
:1009F000020F63D1FFF758FD401B0228F5D90320F1
:100A0000DFE1484A136843F480331360A5E7454BA0
:100A10001A6842F480221A601A6842F480321A601E
:100A20009BE7FFF741FD05463E4B1B6813F4003F73
:100A3000BDD0FFF739FD401B6428F5D90320C0E184
:100A400040F21F11384800F02BFDB7E74FF49071CA
:100A5000354800F025FDB4E7324B5B6813F4800F96
:100A6000BAD1304B1B6813F0020F03D0E368012B9F
:100A700040F0A4812B4A136823F0F803216943EA6C
:100A8000C1031360236813F0080F51D06369012B71
:100A90002FD863699BB3254B0122C3F8802EFFF743
:100AA00003FD05461F4B5B6F13F0020F40D1FFF7AC
:100AB000FBFC401B0228F5D9032082E1194A136888
:100AC00023F0F803216943EAC1031360DAE7174B07
:100AD00000221A60FFF7E8FC0546124B1B6813F072
:100AE000020FCFD0FFF7E0FC401B0228F5D903200E
:100AF00067E14FF4B0710C4800F0D2FCC9E70B4B32
:100B00000022C3F8802EFFF7CFFC0546054B5B6F34
:100B100013F0020F0CD0FFF7C7FC401B0228F5D9D9
:100B200003204EE100380240E42200080000474262
:100B3000236813F0040F7CD0A368012B01D9052B87
:100B400038D1A44B1B6C13F0805F39D10023019383
:100B5000A04B1A6C42F080521A641B6C03F0805355
:100B60000193019B01259C4B1B6813F4807F29D0C6
:100B7000A368012B3AD0052B3ED0964B1A6F22F07A
:100B800001021A671A6F22F004021A67A368002B89
:100B90003CD0FFF789FC06468E4B1B6F13F0020F0B
:100BA00045D1FFF781FC801B41F288339842F3D98D
:100BB000032006E14FF4C671884800F071FCC0E7DD
:100BC0000025D0E7844A136843F480731360FFF76D
:100BD0006BFC0646804B1B6813F4807FC8D1FFF77F
:100BE00063FC801B0228F5D90320EAE0794A136FE1
:100BF00043F001031367C9E7764B1A6F42F0040212
:100C00001A671A6F42F001021A67BFE7FFF74CFC40
:100C10000646704B1B6F13F0020F08D0FFF744FC21
:100C2000801B41F288339842F3D90320C9E0002D9C
:100C30003ED1A369022B41D8A369002B00F0C080EC
:100C4000644A926802F00C02082A00F09380022B9A
:100C50007CD1E36913B1B3F5800F35D1236A3F2B03
:100C600038D8636A323BB3F5BF7F39D8A36A022B09
:100C700008D0082B3AD84FF4A87222FA03F313F0E5
:100C8000010F33D0E36A023B0D2B35D8544B0022C1
:100C90001A66FFF709FC05464E4B1B6813F0007FF0
:100CA00030D0FFF701FC401B0228F5D9032088E073
:100CB000484A136C23F080531364BAE740F2CF1113
:100CC000464800F0EDFBB7E74FF4EC71434800F005
:100CD000E7FBC3E740F2D911404800F0E1FBC0E771
:100CE0004FF4ED713D4800F0DBFBBFE740F2DB1154
:100CF0003A4800F0D5FBC5E74FF4EE71374800F0F5
:100D0000CFFBC3E7E369226A1343626A43EA8213B3
:100D1000A26A5208013A43EA0243E26A43EA0263E2
:100D20002C4A53602E4B01221A66FFF7BDFB044686
:100D3000284B1B6813F0007F06D1FFF7B5FB001BA3
:100D40000228F5D903203CE000203AE0244B0022A1
:100D50001A66FFF7A9FB04461E4B1B6813F0007FC1
:100D600006D0FFF7A1FB001B0228F5D9032028E0DD
:100D7000002026E0012B26D0164B5B6803F480018F
:100D8000E269914221D103F03F02216A8A421ED1D9
:100D9000616A47F6C0721A408A4223D103F4403296
:100DA000A16A8A4220D103F07063E26A93421DD1A6
:100DB000002006E001207047012002E0012000E051
:100DC000002002B070BD0120FBE70120F9E70120FF
:100DD000F7E700BF0038024000700040E42200083E
:100DE000000047420120ECE70120EAE70120E8E7A4
:100DF00008B5334B9B6803F00C03042B5BD0082B26
:100E00005BD12F4B5A6802F03F025B6813F4800FEE
:100E10002CD02B4B5868C0F388104FEA401CBCEB19
:100E2000000C6EEB0E0E4FEA8E1343EA9C634FEA02
:100E30008C11B1EB0C0163EB0E03DB0043EA517341
:100E4000C90011EB000C43F10003590200234FEAE3
:100E50004C2041EADC5100F0C1FB194B5B68C3F345
:100E6000014301335B00B0FBF3F027E0144B5868FB
:100E7000C0F388104FEA401CBCEB000C6EEB0E0E6A
:100E80004FEA8E1343EA9C634FEA8C11B1EB0C01DD
:100E900063EB0E03DB0043EA5173C90011EB000C56
:100EA00043F10003990200234FEA8C2041EA9C5150
:100EB00000F094FBD1E7034800E0034808BD00BF01
:100EC0000038024000127A000024F400002800F0EC
:100ED000FA8070B50D4604460368013B0E2B30D8EE
:100EE000072D34D87C4B1B6803F00F03AB4208D2AC
:100EF000EBB2794A1370136803F00F03AB4240F072
:100F0000E480236813F0020F32D013F0040F04D0F2
:100F1000724A936843F4E0539360236813F0080F18
:100F200004D06E4A936843F460439360A368C3B1EE
:100F3000C02B16D049D8A02B13D00ED9B02B10D06F
:100F400049E040F25121664800F0AAFAC8E740F2B1
:100F50005221634800F0A4FAC4E7802B01D0902B03
:100F600039D15E4A936823F0F003A1680B43936084
:100F7000236813F0010F48D06368032B31D86368EE
:100F8000012B34D09A1E012A38D9544A126812F023
:100F9000020F00F09C8051498A6822F0030213433B
:100FA0008B60FFF781FA06464C4B9B6803F00C03FD
:100FB0006268B3EB820F28D0FFF776FA801B41F20C
:100FC00088339842F0D9032070E0E02BC9D0F02B91
:100FD000C7D0D02BC5D040F27521414800F060FA4F
:100FE000BFE74FF41F713E4800F05AFAC7E73B4A8B
:100FF000126812F4003FCED1012057E0374A126840
:1010000012F0007FC7D1012050E0334B1B6803F082
:101010000F03AB4207D9EAB22F4B1A701B6803F0DB
:101020000F03AB4255D1236813F0040F14D0E368CB
:101030005BB1B3F5805F08D0B3F5A05F05D0B3F521
:10104000C05F02D0B3F5E05F31D1244A936823F446
:10105000E053E1680B439360236813F0080F15D049
:1010600023695BB1B3F5805F08D0B3F5A05F05D00D
:10107000B3F5C05F02D0B3F5E05F1ED1174A9368A5
:1010800023F46043216943EAC1039360FFF7B0FE94
:10109000124B9B68C3F30313124AD35CD840124B24
:1010A0001860124B1868FFF7B3F9002070BD40F2CA
:1010B000BA210B4800F0F4F9C7E740F2C121084813
:1010C00000F0EEF9DAE7012070470120EEE7012099
:1010D000ECE70120EAE700BF003C02400038024094
:1010E000E42200085C24000814000020080000200E
:1010F000014B1868704700BF14000020FEE7000095
:1011000008B503460C4A12685AB10B4A10680333FB
:1011100023F003030344094A934206D8064A1360A6
:1011200008BD054A06491160EFE700F0D5FB0C2326
:1011300003604FF0FF30F3E78800002000FC01203F
:101140002401002001230360014B0B60704700BFA6
:101150000C0000202DE9F04385B004460F464356AD
:101160003BBB042528462146ABBE0546384605B0A4
:10117000BDE8F08314F901CB03F110026A4402F8D0
:1011800010CC0133AB42F5D310336B44002203F88B
:10119000102C4FF00408E94640464946ABBE804655
:1011A000761B002EE2D03546102E28BF10250023D6
:1011B000E8E70E46F5E708B5FFF7CCFF08BD0000ED
:1011C0000FB400B583B004AB53F8042B0193802116
:1011D000074800F0BBFB002804DC03B05DF804EB1B
:1011E00004B0704701460248FFF7E5FFF5E700BF8E
:1011F0009400002010B5044600F074FB0146204620
:10120000FFF7D9FF01210248FFF7D5FF10BD00BF4E
:10121000AC230008F8B504460D4617461E4627487D
:10122000FFF7CEFF21682648FFF7CAFF616825480F
:10123000FFF7C6FFA1682448FFF7C2FFE168234813
:10124000FFF7BEFF21692248FFF7BAFF6169214815
:10125000FFF7B6FFA1692048FFF7B2FFE1691F4819
:10126000FFF7AEFF1E48FFF7ABFF29461D48FFF70B
:10127000A7FF1D4CE16A1D48FFF7A2FF216B1C4828
:10128000FFF79EFFE16B1B48FFF79AFF15F0800FF9
:101290000AD115F4004F0CD11748FFF791FF0699BA
:1012A0001648FFF78DFFF8BD39461548FFF788FF50
:1012B000EFE731461348FFF783FFEDE714230008FB
:1012C0002423000834230008442300085423000882
:1012D0006423000874230008842300089423000872
:1012E000A4230008B023000800ED00E0C02300089C
:1012F000D0230008E0230008102400081824000868
:10130000F02300080024000883691A888A4201D06B
:10131000002070470268033A012A01D90020704773
:10132000023383610120704708B500F009F8024AD2
:10133000024B9A6008BD00BF0000000800ED00E00D
:10134000024B4FF000629A60704700BF00ED00E072
:10135000224B9B6803F00C03042B14D0082B16D0EF
:101360001BB11F4B1F4A1A6002E01D4B1D4A1A6039
:101370001A4B9B68C3F303131B4AD15C184A1368CA
:10138000CB4013607047164B184A1A60F0E7134BB6
:1013900059685A6802F03F0211F4800F13D0134BC2
:1013A000B3FBF2F30D4A5268C2F3881202FB03F357
:1013B0000A4A5268C2F3014201325200B3FBF2F30F
:1013C000074A1360D4E7074BB3FBF2F3034A5268B2
:1013D000C2F3881202FB03F3EAE700BF00380240C1
:1013E000140000200024F4005C24000800127A009D
:1013F00030B595B000240194224B1A6C42F0805213
:101400001A641B6C03F080530193019B02941E4BE2
:101410001A6842F480421A601B6803F48043029306
:10142000029B012308934FF4803309934FF4800308
:101430000F93082310934FF4A8731193022512956C
:10144000072313930E9508A8FFF756FA0F2303936B
:10145000049505944FF4A05306934FF480530793DB
:10146000052103A8FFF732FDFFF742FE074BA3FB60
:1014700000308009FFF782F80420FFF793F815B0D9
:1014800030BD00BF0038024000700040D34D6210F4
:1014900008B5FEF7E3FFFFF7ABFFFFF759FF08BD05
:1014A00008B50A4601460248FFF78AFEFEE700BF7C
:1014B0006C24000808B501224FF480510148FFF761
:1014C000FFF908BD000C024008B500224FF480511E
:1014D0000148FFF7F5F908BD000C024000B587B0E0
:1014E0000A4A136B43F0080313634FF480530193CC
:1014F0000123029302220492039301A90448FFF7F7
:101500006FF8FFF7E1FF07B05DF804FB0038024019
:10151000000C024010B51148FFF76CFE104B196823
:101520001048FFF74DFE00F023F8FFF7D7FF002427
:101530000DE04FF47A7000F037F8FFF7C5FFFA209E
:1015400000F032F8013421460748FFF739FEFFF773
:10155000B1FF002CEDD040F2EE20ECE79C24000817
:1015600014000020B0240008C824000870470000C0
:101570000A4B1B680A4AA2FB03239B09013BB3F1F8
:10158000807F0AD24FF0E0225361064BF02183F8AE
:101590002310002393610723136170471400002078
:1015A000D34D621000ED00E0034B1860024B1B6846
:1015B000002BFBD1704700BF14010020034B1B68B8
:1015C0001BB1024A1368013B1360704714010020ED
:1015D00008B5FEF75DFFFFF7F1FF08BD53B94AB943
:1015E000002908BF00281CBF4FF0FF314FF0FF302B
:1015F00000F070B9ADF1080C6DE904CE00F006F80A
:10160000DDF804E0DDE9022304B070472DE9F0477E
:10161000089E0D4604460F46002B4AD18A42944646
:1016200065D9B2FA82F343B102FA03FCC3F1200296
:101630009F4020FA02F217439C404FEA1C4E1FFACB
:101640008CF5B7FBFEF1220C0EFB117742EA074244
:1016500001FB05F090420AD91CEB020201F1FF37B1
:1016600080F01B81904240F2188102396244121AC4
:10167000A4B2B2FBFEF00EFB102244EA024400FBCF
:1016800005F5A5420AD91CEB040400F1FF3280F0F5
:101690000681A54240F203816444023840EA0140D9
:1016A000641B00211EB1DC400023C6E90043BDE8F5
:1016B000F0878B4208D9002E00F0EC800021C6E9AB
:1016C00000050846BDE8F087B3FA83F1002949D147
:1016D000AB4202D3824200F2F780841A65EB030228
:1016E00001201746002EE2D0C6E90047DFE702B925
:1016F000FFDEB2FA82F3002B40F08F808A1A4FEAA5
:101700001C471FFA8CFE0121B2FBF7F507FB1520E1
:10171000220C42EA00420EFB05F0904208D91CEB75
:10172000020205F1FF3802D2904200F2CA8045461B
:10173000121AA4B2B2FBF7F007FB102244EA0244EB
:101740000EFB00FEA64508D91CEB040400F1FF3295
:1017500002D2A64500F2BA801046A4EB0E0440EA7D
:1017600005409FE7C1F120078B4022FA07FC4CEAB5
:10177000030C05FA01F420FA07F3FD40234300FAB5
:1017800001F94FEA1C401FFA8CFEB5FBF0F81C0C67
:1017900000FB185544EA054408FB0EF5A54202FA81
:1017A00001F20BD91CEB040408F1FF3A80F08780AA
:1017B000A54240F28480A8F102086444641B9DB2F3
:1017C000B4FBF0F300FB134445EA044403FB0EFEB4
:1017D000A64508D91CEB040403F1FF306BD2A645E3
:1017E00069D9023B644443EA0840A0FB0283A4EBAE
:1017F0000E049C42C6461D4655D352D056B1B9EB95
:101800000E0364EB050404FA07F7CB40CC401F43FA
:10181000C6E900740021BDE8F087C3F1200102FA97
:1018200003FC20FA01F225FA01F19D402A434FEA18
:101830001C471FFA8CFEB1FBF7F007FB1015110CCB
:1018400041EA054100FB0EF58D4204FA03F408D984
:101850001CEB010100F1FF382FD28D422DD9023847
:101860006144491B92B2B1FBF7F507FB151142EA3F
:10187000014205FB0EF1914208D91CEB020205F171
:10188000FF3816D2914214D9023D6244521A45EAF9
:10189000004139E73146304609E73946E7E6104668
:1018A000FCE6C145AAD2B8EB020E63EB0C05013889
:1018B000A4E74546EAE7034695E74046D1E7D04628
:1018C0007CE7023D624433E708460BE76444023894
:1018D00043E700BF704700BF014B1868704700BF67
:1018E00018000020034613F8012B002AFBD1181A18
:1018F0000138704730B51446002C9BB005461A4697
:1019000005DA8B2303604FF0FF301BB030BD4FF47E
:101910000273ADF80C3014BF04F1FF332346029379
:1019200005934FF6FF7300910491ADF80E306946B0
:101930001E9B00F073F8431CBCBF8B232B60002C54
:10194000E3D0009B00221A70DFE7000007B5009388
:1019500013460A46014603480068FFF7CBFF03B071
:101960005DF804FB180000202DE9F0478E681F4643
:10197000BE420B6882460C4690462CD88A8912F4E7
:10198000906F26D06569096905EB4505A3EB010950
:1019900005EBD5757B1C4B446D109D4238BF1D4631
:1019A000530527D5294600F0ADFB064660B32169F3
:1019B0004A4600F015FBA38923F4906343F08003AB
:1019C000A381266165614E44A5EB09052660A560EB
:1019D0003E46BE4200D93E4620683246414600F0AF
:1019E0000DFBA3689B1BA360236833442360002086
:1019F000BDE8F0872A4600F0F9FB06460028E0D152
:101A00002169504600F014FB0C23CAF80030A3896A
:101A100043F04003A3814FF0FF30E9E72DE9F04F99
:101A200098468B891B069DB007460D4614460ED579
:101A30000B6963B9402100F065FB2860286120B97B
:101A40000C233B604FF0FF30D0E040236B6100235C
:101A5000099320238DF82930CDF80C803023DFF84E
:101A6000A4818DF82A304FF0010923469A4613F8D5
:101A7000012B0AB1252AF9D1BAEB040B0BD05B4636
:101A8000224629463846FFF76FFF013000F0A98053
:101A9000099A5A4409929AF80030002B00F0A1806C
:101AA00000234FF0FF32CDE905230AF1010A049328
:101AB00007938DF853301A935446052214F8011BEE
:101AC000504800F03DFA049AD8B9D00644BF20230C
:101AD0008DF85330110744BF2B238DF853309AF8FB
:101AE00000302A2B15D0079A544600204FF00A0CDC
:101AF000214611F8013B303B092B4DD9B0B107927B
:101B000014E0A0EB080309FA03F313430493A2467D
:101B1000D2E7039B191D1B680391002BBBBF5B42DF
:101B200042F0020207930793B8BF049223782E2B4A
:101B30000CD163782A2B34D1039B1A1D1B680392A6
:101B4000002BB8BF4FF0FF3302340593DFF8B8A085
:101B500021780322504600F0F3F938B1049BA0EB42
:101B60000A004022824013430134049314F8011BFD
:101B700026488DF82810062200F0E2F9002838D017
:101B8000234B1BBB039B073323F00703083303934B
:101B9000099B3344099368E70CFB02320C46012091
:101BA000A6E700230134059319464FF00A0C20469E
:101BB00010F8012B303A092A03D9002BC6D0059121
:101BC000C4E70CFB012104460123F0E703AB0093BB
:101BD0002A46104B04A93846AFF30080421C064643
:101BE000D6D1AB895B063FF52DAF09981DB0BDE896
:101BF000F08F03AB00932A46064B04A9384600F049
:101C000079F8EBE7D3240008D9240008DD24000884
:101C100000000000691900082DE9F04716469946B2
:101C20008A680B69DDF820809342B8BF13463360A1
:101C300091F8432007460C460AB10133336023680C
:101C4000990642BF336802333360256815F00605F4
:101C500006D104F1190AE36832689B1AAB4226DC0C
:101C600094F84320131E226818BF012392062BD438
:101C700004F1430249463846C04701301ED023686C
:101C8000226903F00603042B02BFE5683368ED1AEE
:101C9000A3680CBF25EAE57500259342C4BF9B1AD3
:101CA000ED1800261A34B5421AD1002008E00123AD
:101CB000524649463846C047013003D14FF0FF3005
:101CC000BDE8F0870135C6E7E1185A1C302081F8DD
:101CD0004300224494F8451082F843100233C7E7CA
:101CE0000123224649463846C0470130E6D0013636
:101CF000D9E700002DE9FF470F7E0C9D782F914614
:101D000080460C469A4601F1430207D8622F0AD852
:101D1000002F00F0D480582F00F0C08004F142055D
:101D200084F842703AE0A7F16303152BF6D801A1BD
:101D300051F823F08D1D0008A11D00081D1D00088D
:101D40001D1D00081D1D00081D1D0008A11D000807
:101D50001D1D00081D1D00081D1D00081D1D00087B
:101D6000A51E0008CD1D00085F1E00081D1D0008EF
:101D70001D1D0008C71E00081D1D0008CD1D000800
:101D80001D1D00081D1D0008671E00082B681A1D78
:101D90001B682A6004F1420584F8423001239FE069
:101DA00020682B68070603F10401296001D51E682D
:101DB00003E04606FBD5B3F90060002E03DA2D23BD
:101DC000764284F843305A480A2312E02B68206890
:101DD000191D2960050601D51E6802E04106FBD5E4
:101DE0001E8853486F2F0CBF08230A23002184F854
:101DF00043106568A560002DA2BF216821F0040191
:101E000021600EB9002D4BD01546B6FBF3F103FB54
:101E10001167C75D05F8017D3746BB420E46F4D910
:101E2000082B0BD12368DE0708D523696168994226
:101E3000DEBF302305F8013C05F1FF35521B22615E
:101E4000CDF800A04B4603AA21464046FFF7E4FE2A
:101E500001304AD14FF0FF3004B0BDE8F08723686D
:101E600043F0200323603348782784F845702368C3
:101E700029681F0651F8046B02D45F0648BFB6B24A
:101E8000DF0748BF43F02003296048BF23601EB925
:101E9000236823F0200323601023A7E72448E4E706
:101EA0001546BDE72B6826686169181D2860350650
:101EB0001B6801D5196002E07006FBD5198000236C
:101EC00023611546BCE72B681A1D2A601D686268ED
:101ED0000021284600F034F808B1401B60606368B8
:101EE0002361002384F84330AAE723692A46494640
:101EF0004046D0470130ADD023689B0713D4E0683B
:101F0000039B9842B8BF1846A6E7012332464946CC
:101F10004046D04701309DD00135E36803995B1AF4
:101F2000AB42F2DCEBE7002504F11906F5E700BF50
:101F3000E4240008F5240008000000000000000070
:101F400001F0FF01102A2BDB10F0070F08D010F86A
:101F5000013B013A8B422DD010F0070F42B3F6D16E
:101F6000F0B441EA012141EA014122F007047FF087
:101F700000070023F0E80256083C85EA010586EADE
:101F8000010685FA47F5A3FA87F586FA47F6A5FA1A
:101F900087F68EB9EED1F0BC01F0FF0102F0070226
:101FA00032B110F8013B013A83EA010313B1F8D1D1
:101FB0000020704701387047002D06BF35460338B2
:101FC000073815F0010F07D1013015F4807F02BFEB
:101FD000013015F4C03F0130F0BC0138704700BF3C
:101FE0000A44914200F1FF3300D1704710B511F857
:101FF000014B03F8014F9142F9D110BD884210B551
:1020000001EB020402D98442234607D8431EA142B1
:1020100008D011F8012B03F8012FF8E7024401461C
:102020008A4200D110BD13F8014D02F8014DF7E7C7
:1020300038B50546002941D051F8043C0C1F002B4F
:10204000B8BFE41800F012F91D4A136833B9636091
:1020500014602846BDE8384000F009B9A34208D909
:10206000206821188B4201BF19685B68091821603C
:10207000EDE71A465B680BB1A342FAD91168501814
:10208000A0420BD120680144501883421160E0D176
:1020900018685B68536008441060DAE702D90C23C3
:1020A0002B60D6E7206821188B4204BF19685B6853
:1020B000636004BF091821605460CAE738BD00BFDF
:1020C0001801002070B50E4E0C463168054611B956
:1020D00000F0BCF830602146284600F0B7F8431CF9
:1020E0000AD0C41C24F00304A04207D0211A2846B9
:1020F00000F0ACF8013001D14FF0FF34204670BD44
:102100001C0100202DE9F041CD1C25F00305083508
:102110000C2D38BF0C25002D074601DBA94205D93F
:102120000C233B6000263046BDE8F0812E4E00F0C7
:102130009DF833681C4634BB29463846FFF7C2FF7A
:10214000431C04464DD134682646002E40D12368F6
:102150003146384604EB030800F078F880453AD160
:1021600023680335ED1A25F0030508350C2D38BF1B
:102170000C2529463846FFF7A5FF01302BD02368F0
:102180002B4423600EE02268521B1ED40B2A16D962
:102190006119A342256018BF5960636808BF3160A8
:1021A00062514B60384604F10B0600F060F826F0EF
:1021B0000706231DF21AB6D09B1BA350B3E7626833
:1021C000A3420CBF32605A60ECE723466468B2E772
:1021D00034467668B9E70C233B60384600F047F890
:1021E000A1E72560DEE700BF180100202DE9F041DE
:1021F000804614460E4621B9BDE8F0411146FFF76E
:1022000081BF2AB9FFF714FF25462846BDE8F081B3
:1022100000F02EF88442074602D8B4EB500F12D8D3
:1022200021464046FFF76EFF05460028EDD0BC4230
:102230002246314628BF3A46FFF7D2FE3146404695
:10224000FFF7F6FEE1E73546DFE7000038B5064D5B
:102250000023044608462B60FEF752FF431C02D1C0
:102260002B6803B1236038BD8C0000207047704795
:1022700051F8043C181F002BBCBF0B58C018704706
:102280002E2E2F73797374656D2F7372632F737491
:102290006D333266342D68616C2F73746D33326622
:1022A0003478785F68616C5F636F727465782E63F1
:1022B000000000002E2E2F73797374656D2F7372DA
:1022C000632F73746D333266342D68616C2F7374B1
:1022D0006D3332663478785F68616C5F6770696F00
:1022E0002E6300002E2E2F73797374656D2F737219
:1022F000632F73746D333266342D68616C2F737481
:102300006D3332663478785F68616C5F7263632E18
:1023100063000000537461636B206672616D653AFF
:102320000A000000205230203D2020253038580A75
:1023300000000000205231203D2020253038580A6E
:1023400000000000205232203D2020253038580A5D
:1023500000000000205233203D2020253038580A4C
:102360000000000020523132203D20253038580A2C
:1023700000000000204C52203D2020253038580A13
:1023800000000000205043203D2020253038580A0E
:102390000000000020505352203D20253038580ABC
:1023A000000000004653522F4641523A0A000000F6
:1023B0002043465352203D2020253038580A000043
:1023C0002048465352203D2020253038580A00002E
:1023D0002044465352203D2020253038580A000022
:1023E0002041465352203D2020253038580A000015
:1023F000204D4D464152203D20253038580A0000DE
:102400002042464152203D2020253038580A000005
:102410004D6973630A000000204C522F4558435FFA
:1024200052455455524E3D20253038580A00000080
:102430005B486172644661756C745D0A000000005F
:102440005B4275734661756C745D0A005B55736120
:1024500067654661756C745D0A000000000000004D
:1024600000000000010203040607080957726F6E9E
:102470006720706172616D65746572732076616C3E
:1024800075653A2066696C65202573206F6E206C37
:10249000696E652025640D0A0000000048656C6CBB
:1024A0006F2041726D20576F726C64210000000034
:1024B00053797374656D20636C6F636B3A20257577
:1024C00020487A0A000000005365636F6E6420257F
:1024D000750A00232D302B2000686C4C0065666760
:1024E000454647003031323334353637383941428A
:1024F000434445460030313233343536373839615C
:06250000626364656600E1
:0825080004F1FF7F0100000057
:102510007856341201FFFFFF1000000090000020E9
:10252000000000000024F4001C0000200000000057
:10253000000000000000000000000000000000009B
:10254000000000000000000000000000000000008B
:10255000000000000000000000000000000000007B
:10256000000000000000000000000000000000006B
:10257000000000000000000000000000000000005B
:1025800000000000000000000000000032547698B7
:040000050800018965
:00000001FF
