:020000040800F2
:100000000000022055020008590200085B020008A7
:100010007102000873020008890200080000000055
:100020000000000000000000000000009F02000827
:10003000A102000800000000A3020008590D0008FA
:10004000B9020008B9020008B9020008B9020008A4
:10005000B9020008B9020008B9020008B902000894
:10006000B9020008B9020008B9020008B902000884
:10007000B9020008B9020008B9020008B902000874
:10008000B9020008B9020008B9020008B902000864
:10009000B9020008B9020008B9020008B902000854
:1000A000B9020008B9020008B9020008B902000844
:1000B000B9020008B9020008B9020008B902000834
:1000C000B9020008B9020008B9020008B902000824
:1000D000B9020008B9020008B9020008B902000814
:1000E000B9020008B9020008B9020008B902000804
:1000F000B9020008B9020008B9020008B9020008F4
:10010000B9020008B9020008B9020008B9020008E3
:10011000B9020008B9020008B9020008B9020008D3
:10012000B9020008B9020008B9020008B9020008C3
:10013000B9020008B9020008B9020008B9020008B3
:10014000B9020008B9020008B9020008B9020008A3
:10015000B9020008B9020008B9020008B902000893
:10016000B9020008B9020008B9020008B902000883
:10017000B9020008B9020008B90200080000000036
:10018000B9020008B902000807B500F0BFFC274B10
:100190002748834226D3274A274900208A422CD366
:1001A00000F05EFD254D264C01A9684600F0A6FC36
:1001B000641BA4100026B44228DC224D224C641B90
:1001C000A4100026B44226DCDDE9000100F07EFD2B
:1001D0001E4E1F4CA41B0546A410002C20DC2846F4
:1001E00000F088FCD3E900129C680C33891A944211
:1001F000CFD9555815600432F9E752F8083B52F848
:10020000044C9C42CAD943F8040BFAE755F8043B66
:1002100098470136CFE755F8043B98470136D1E7B8
:10022000013C56F824309847D7E700BFBC020008CD
:10023000D4020008D4020008E4020008E402000826
:10024000E4020008E4020008E4020008E4020008F6
:10025000E402000814480047FEE71EF0040F0CBF3C
:10026000EFF30880EFF309807146104A1047FEE76C
:10027000FEE71EF0040F0CBFEFF30880EFF30980D8
:1002800071460B4A1047FEE71EF0040F0CBFEFF358
:100290000880EFF309807146064A1047FEE7FEE743
:1002A000FEE7FEE770470000890100086F020008C2
:0A02B000870200089D020008FEE727
:1002BC007C10000800000020140000207C100008B6
:1002CC00000000100000001014000020200000208E
:0802DC000000001000000010FA
:1002E40038B50E4B1A784FF47A73B3FBF2F30C4A19
:1002F40005461068B0FBF3F000F086F8044658B9E0
:100304000F2D09D8024629464FF0FF3000F04AF875
:10031400044B20461D6038BD0120FCE7000000208E
:10032400100000200400002008B50B4B1A6842F4AA
:1003340000721A601A6842F480621A601A6842F401
:1003440080721A60032000F01BF80F20FFF7C8FF2B
:1003540000F0D2FC002008BD003C0240034A044BDC
:1003640011681B780B441360704700BF1400002011
:1003740000000020014B1868704700BF14000020E3
:100384000749CA6822F4E0620302120403F4E0633A
:10039400120C134343F0BF6343F40033CB60704744
:1003A40000ED00E0164B30B5DC68C4F30224C4F160
:1003B4000703251D042B28BF0423062D4FF0FF350A
:1003C4008CBF033C002405FA03F321EA0303A54090
:1003D40022EA0502A340002843EA0203ACBF00F16D
:1003E4006040084A4FEA0313B8BF00F00F00DBB2C5
:1003F400AABF00F56140135480F8003330BD00BF3C
:1004040000ED00E014ED00E00138B0F1807F0BD284
:100414004FF0E023054A5861F02182F823100020B0
:10042400072298611A6170470120704700ED00E0CF
:100434004FF0E02304281A690CBF42F0040222F0B2
:1004440004021A61704700002DE9F74FDFF89C8120
:10045400674ADFF8A09100230D6801249C4004EA58
:100464000506AC4340F0AF804C6824F0100C4FEA12
:10047400430E03250CF1FF3705FA0EF5012F6FEA41
:10048400050510D8876807EA050ACF6807FA0EF74A
:1004940047EA0A078760476827EA060A27099F4050
:1004A40047EA0A074760C76807EA050A8F6807FA38
:1004B4000EF747EA0A07BCF1020FC76016D14FEAEC
:1004C400D30A00EB8A0A03F0070BDAF820704FEA2C
:1004D4008B0B4FF00F0C0CFA0BFC27EA0C0C0F697A
:1004E40007FA0BF747EA0C07CAF8207007682F4091
:1004F40004F0030505FA0EF53D430560E50062D5F9
:1005040000250195D8F8447047F48047C8F8447032
:10051400D8F8447007F480470197019F23F003073C
:1005240007F1804707F59C3703F0030ED7F808A0BE
:100534004FEA8E0E4FF00F0C0CFA0EFC2AEA0C0C4C
:10054400DFF8B4A050451DD005F1804505F501350F
:10055400A8423FD005F58065A8423DD005F58065E9
:10056400A8423BD005F58065A84239D0484539D02A
:1005740005F50065A84237D005F58065A8420CBF93
:100584000725082505FA0EF545EA0C05BD60156832
:10059400F74314F4803F0CBF3D4035431560556864
:1005A40014F4003F0CBF3D4035435560956814F486
:1005B400801F0CBF3D4035439560D568A40254BFED
:1005C4003D403543D5600133102B7FF445AF03B074
:1005D400BDE8F08F0125D5E70225D3E70325D1E750
:1005E4000425CFE70525CDE70625CBE700380240F3
:1005F400003C014000140240000002400AB1816145
:1006040070470904FBE700002DE9F341044640B3B9
:100614000368DD0710D4236898075BD423681A079E
:1006240000F19D8023685B0700F1BD80A06900286C
:1006340040F0248100202CE08D4B9A6802F00C02DB
:10064400042A07D09A6802F00C02082A0BD15B68CE
:10065400590208D5864B1B689A03DCD56368002BC6
:10066400D9D1012015E06368814DB3F5803F13D1E2
:100674002B6843F480332B60FFF77CFE7C4E0546E9
:1006840033689B03C7D4FFF775FE401B6428F7D972
:10069400032002B0BDE8F081B3F5A02F04D12B688C
:1006A40043F480232B60E3E72A6822F480322A6033
:1006B4002A6822F480222A60002BDDD1FFF75AFE3B
:1006C40006462B689F03A6D5FFF754FE801B6428BB
:1006D400F7D9DDE7664B9A6812F00C0F07D09A68D9
:1006E40002F00C02082A11D15B685E020ED4604A43
:1006F40013689D0702D5E368012BB2D11368216901
:1007040023F0F80343EAC103136087E7E268594B17
:10071400B2B101221A60FFF72DFE554D06462B6833
:10072400980707D52B68226923F0F80343EAC2032C
:100734002B6073E7FFF71EFE801B0228EFD9A7E7A3
:100744001A60FFF717FE4A4E0546336899077FF58E
:1007540065AFFFF70FFE401B0228F6D998E76269E0
:10076400444B82B10122C3F8802EFFF703FE404EB2
:100774000546736F9F073FF555AFFFF7FBFD401B21
:100784000228F6D984E7C3F8802EFFF7F3FD384E2C
:100794000546736F98077FF545AFFFF7EBFD401BE8
:1007A4000228F6D974E7324B1A6C12F0805228D121
:1007B40001921A6C42F080521A641B6C03F080534D
:1007C4000193019B01272C4D2B68D9051BD5A368E8
:1007D400274D012B27D12B6F43F001032B67FFF724
:1007E400C9FD234E054641F28838336F9B0739D53E
:1007F400002F3FF41BAF1E4A136C23F08053136485
:1008040014E70027DFE72B6843F480732B60FFF7BE
:10081400B1FD06462B68DA05D9D4FFF7ABFD801B82
:100824000228F7D934E7052B04D12B6F43F00403D6
:100834002B67D0E72A6F22F001022A672A6F22F081
:1008440004022A67002BCAD1FFF794FD41F28838CD
:1008540006462B6F9807CBD5FFF78CFD801B4045D0
:10086400F7D915E7FFF786FD401B4045BDD90FE7D3
:10087400003802400000474200700040334DAB682E
:1008840003F00C03082B3DD0314B002202281A66DA
:100894002BD1FFF76FFD06462B6899011FD4D4E9CD
:1008A40007321343626A43EA8213E26A43EA026349
:1008B400A26A5208013A43EA02436B60244B234D77
:1008C40001221A66FFF756FD04462B689A013FF58C
:1008D400B1AEFFF74FFD001B0228F6D9D8E6FFF7AB
:1008E40049FD801B0228D7D9D2E6FFF743FD044611
:1008F4002B689B017FF59EAEFFF73CFD001B022891
:10090400F6D9C5E601283FF4C4AE6B68E26903F486
:10091400800191427FF4A5AE216A03F03F028A422E
:100924007FF49FAE616A47F6C0721A408A427FF430
:1009340098AEA16A03F440328A427FF492AEE26A2E
:1009440003F0706393423FF475AE8AE600380240C8
:1009540000004742134908B58B6803F00C03042BCD
:100964001CD0082B1CD14A684B68496813F48003D7
:1009740014BF0D480D48C1F3881118BF002302F0BD
:100984003F02A1FB000100F0EDF9064B5B68C3F3E5
:10099400014301335B00B0FBF3F008BD0248FCE700
:1009A4000248FAE70038024000127A000024F400FA
:1009B4002DE9F0410D46044610B90120BDE8F0814F
:1009C400434B1A6802F00F028A4228D321688F072A
:1009D4002DD4C80740D43E4B1A6802F00F02AA4235
:1009E40065D8226851076BD4130707D5394A2169A2
:1009F400936823F4604343EAC1039360FFF7AAFFBB
:100A0400344B354A9B68C3F30313D35CD840334B50
:100A14001860334B1868FFF763FC0020CEE7CAB2B6
:100A24001A701B6803F00F038B42C6D1CEE7294B23
:100A340011F0040F1EBF9A6842F4E0529A600E0748
:100A440042BF9A6842F460429A609A68A06822F0B1
:100A5400F00202439A60BCE762681E4B012A1CD173
:100A64001B6813F4003FA8D01A4EB36823F00303A5
:100A74001343B360FFF77EFC41F288380746B3683E
:100A8400626803F00C03B3EB820FA4D0FFF772FC8F
:100A9400C01B4045F3D9032090E7911E01291B6830
:100AA40002D813F0007FDEE713F0020FDBE7EAB2AF
:100AB4001A701B6803F00F03AB427FF47EAF90E71C
:100AC4000449E0688B6823F4E05303438B608BE7AD
:100AD400003C02400038024064100008100000206E
:100AE40004000020014B1868704700BF100000206C
:100AF40008B500F015F8000001230360014B0B60FA
:100B0400704700BF0800002008B500F01BF8024B36
:100B1400024A9A6008BD00BF00ED00E00000000832
:100B2400BFF34F8F0549064BCA6802F4E0621343D2
:100B3400CB60BFF34F8F00BFFDE700BF00ED00E0C7
:100B44000400FA05024B4FF000629A60704700BF40
:100B540000ED00E0154B9A6802F00C02042A21D043
:100B6400082A21D159685A685B684902C3F388137B
:100B74004CBF0F490F4902F03F02B1FBF2F253435D
:100B84000A4A5268C2F3014201325200B3FBF2F343
:100B9400064A09499268C2F303128A5CD340074AA1
:100BA40013607047024BF3E7024BF1E70038024051
:100BB40000127A000024F4006410000810000020E1
:100BC40030B595B00024234B01941A6C42F0805246
:100BD4001A641B6C03F080530193019B1E4B029417
:100BE4001A6842F480421A601B6803F4804302933B
:100BF4000122029B4FF48033CDE908234FF4800196
:100C04000823CDE90F1302254FF4A873CDE911355C
:100C140008A8072313930E95FFF7F6FC0F23CDE9DD
:100C240003354FF4A0504FF48053CDE9060305215A
:100C340003A80594FFF7BCFEFFF754FF4FF47A7343
:100C4400B0FBF3F0FFF7E0FB0420FFF7F1FB15B076
:100C540030BD00BF003802400070004008B5FFF707
:100C640063FBFFF7ADFFBDE80840FFF773BF00006B
:100C7400024801224FF48051FFF7C0BC000C02402F
:100C8400024800224FF48051FFF7B8BC000C024028
:100C94007FB50B4A0B48136B43F00803136301231E
:100CA4004FF48052CDE9012301A90222CDE9033298
:100CB400FFF7CAFBFFF7E4FF07B05DF804FB00BFD2
:100CC40000380240000C024038B500F017F8FFF776
:100CD400DFFF002440F2EE25FFF7CAFF002C14BF0B
:100CE40028464FF47A7000F023F8FFF7C9FFFA2082
:100CF40000F01EF80134EFE7704700000A4B4FF490
:100D04007A721B68B3FBF2F3013BB3F1807F0AD222
:100D14004FF0E022F0215361044B83F823100023A9
:100D240093610723136170471000002000ED00E079
:100D3400024B18601A68002AFCD170471C0000207E
:100D4400034B1A6812B11A68013A1A60704700BF5F
:100D54001C00002008B5FFF701FBBDE80840FFF7C1
:100D6400EFBF000053B94AB9002908BF00281CBFCF
:100D74004FF0FF314FF0FF3000F070B9ADF1080CC7
:100D84006DE904CE00F006F8DDF804E0DDE90223A5
:100D940004B070472DE9F047089E0D4604460F46FF
:100DA400002B4AD18A42944665D9B2FA82F343B100
:100DB40002FA03FCC3F120029F4020FA02F2174317
:100DC4009C404FEA1C4E1FFA8CF5B7FBFEF1220C37
:100DD4000EFB117742EA074201FB05F090420AD963
:100DE4001CEB020201F1FF3780F01B81904240F2BC
:100DF400188102396244121AA4B2B2FBFEF00EFB4F
:100E0400102244EA024400FB05F5A5420AD91CEB72
:100E1400040400F1FF3280F00681A54240F2038110
:100E24006444023840EA0140641B00211EB1DC40E6
:100E34000023C6E90043BDE8F0878B4208D9002EA1
:100E440000F0EC800021C6E900050846BDE8F08703
:100E5400B3FA83F1002949D1AB4202D3824200F2B2
:100E6400F780841A65EB030201201746002EE2D0B6
:100E7400C6E90047DFE702B9FFDEB2FA82F3002BCE
:100E840040F08F808A1A4FEA1C471FFA8CFE01211A
:100E9400B2FBF7F507FB1520220C42EA00420EFBD9
:100EA40005F0904208D91CEB020205F1FF3802D28A
:100EB400904200F2CA804546121AA4B2B2FBF7F07F
:100EC40007FB102244EA02440EFB00FEA64508D9A3
:100ED4001CEB040400F1FF3202D2A64500F2BA80F2
:100EE4001046A4EB0E0440EA05409FE7C1F1200739
:100EF4008B4022FA07FC4CEA030C05FA01F420FAB1
:100F040007F3FD40234300FA01F94FEA1C401FFA9E
:100F14008CFEB5FBF0F81C0C00FB185544EA0544A4
:100F240008FB0EF5A54202FA01F20BD91CEB0404EE
:100F340008F1FF3A80F08780A54240F28480A8F14E
:100F440002086444641B9DB2B4FBF0F300FB134439
:100F540045EA044403FB0EFEA64508D91CEB040431
:100F640003F1FF306BD2A64569D9023B644443EADE
:100F74000840A0FB0283A4EB0E049C42C6461D4617
:100F840055D352D056B1B9EB0E0364EB050404FA01
:100F940007F7CB40CC401F43C6E900740021BDE8ED
:100FA400F087C3F1200102FA03FC20FA01F225FACA
:100FB40001F19D402A434FEA1C471FFA8CFEB1FB06
:100FC400F7F007FB1015110C41EA054100FB0EF583
:100FD4008D4204FA03F408D91CEB010100F1FF3837
:100FE4002FD28D422DD902386144491B92B2B1FBF4
:100FF400F7F507FB151142EA014205FB0EF1914298
:1010040008D91CEB020205F1FF3816D2914214D91B
:10101400023D6244521A45EA004139E731463046FE
:1010240009E73946E7E61046FCE6C145AAD2B8EB23
:10103400020E63EB0C050138A4E74546EAE70346D4
:1010440095E74046D1E7D0467CE7023D624433E76A
:1010540008460BE76444023843E700BF704700BF0B
:101064000000000000000000010203040607080954
:0810740024FDFF7F01000000D4
:10107C0001FFFFFF1000000018000020000000001E
:04108C000024F40048
:040000050800018965
:00000001FF
